{
  "_format": "hh-sol-artifact-1",
  "contractName": "SimpleStorage",
  "sourceName": "contracts/simpleStorage.sol",
  "abi": [
    {
      "inputs": [
        {
          "internalType": "string",
          "name": "_name",
          "type": "string"
        },
        {
          "internalType": "uint256",
          "name": "_favoriteNumber",
          "type": "uint256"
        }
      ],
      "name": "addPerson",
      "outputs": [],
      "stateMutability": "nonpayable",
      "type": "function"
    },
    {
      "inputs": [
        {
          "internalType": "uint256",
          "name": "",
          "type": "uint256"
        }
      ],
      "name": "listOfPeople",
      "outputs": [
        {
          "internalType": "uint256",
          "name": "favoriteNumber",
          "type": "uint256"
        },
        {
          "internalType": "string",
          "name": "name",
          "type": "string"
        }
      ],
      "stateMutability": "view",
      "type": "function"
    },
    {
      "inputs": [
        {
          "internalType": "string",
          "name": "",
          "type": "string"
        }
      ],
      "name": "nameToFavoriteNumber",
      "outputs": [
        {
          "internalType": "uint256",
          "name": "",
          "type": "uint256"
        }
      ],
      "stateMutability": "view",
      "type": "function"
    },
    {
      "inputs": [],
      "name": "retrieve",
      "outputs": [
        {
          "internalType": "uint256",
          "name": "",
          "type": "uint256"
        }
      ],
      "stateMutability": "view",
      "type": "function"
    },
    {
      "inputs": [
        {
          "internalType": "uint256",
          "name": "_favoriteNumber",
          "type": "uint256"
        }
      ],
      "name": "store",
      "outputs": [],
      "stateMutability": "nonpayable",
      "type": "function"
    }
  ],
  "bytecode": "0x6080604052348015600f57600080fd5b506109dc8061001f6000396000f3fe608060405234801561001057600080fd5b50600436106100575760003560e01c80632e64cec11461005c5780632ebce6311461007a5780636057361d146100ab5780636f760f41146100c75780638bab8dd5146100e3575b600080fd5b610064610113565b60405161007191906102f9565b60405180910390f35b610094600480360381019061008f9190610354565b61011c565b6040516100a2929190610411565b60405180910390f35b6100c560048036038101906100c09190610354565b6101d8565b005b6100e160048036038101906100dc91906104a6565b6101e2565b005b6100fd60048036038101906100f89190610636565b6102b2565b60405161010a91906102f9565b60405180910390f35b60008054905090565b6001818154811061012c57600080fd5b9060005260206000209060020201600091509050806000015490806001018054610155906106ae565b80601f0160208091040260200160405190810160405280929190818152602001828054610181906106ae565b80156101ce5780601f106101a3576101008083540402835291602001916101ce565b820191906000526020600020905b8154815290600101906020018083116101b157829003601f168201915b5050505050905082565b8060008190555050565b6001604051806040016040528083815260200185858080601f016020809104026020016040519081016040528093929190818152602001838380828437600081840152601f19601f820116905080830192505050505050508152509080600181540180825580915050600190039060005260206000209060020201600090919091909150600082015181600001556020820151816001019081610285919061088b565b505050806002848460405161029b92919061098d565b908152602001604051809103902081905550505050565b6002818051602081018201805184825260208301602085012081835280955050505050506000915090505481565b6000819050919050565b6102f3816102e0565b82525050565b600060208201905061030e60008301846102ea565b92915050565b6000604051905090565b600080fd5b600080fd5b610331816102e0565b811461033c57600080fd5b50565b60008135905061034e81610328565b92915050565b60006020828403121561036a5761036961031e565b5b60006103788482850161033f565b91505092915050565b600081519050919050565b600082825260208201905092915050565b60005b838110156103bb5780820151818401526020810190506103a0565b60008484015250505050565b6000601f19601f8301169050919050565b60006103e382610381565b6103ed818561038c565b93506103fd81856020860161039d565b610406816103c7565b840191505092915050565b600060408201905061042660008301856102ea565b818103602083015261043881846103d8565b90509392505050565b600080fd5b600080fd5b600080fd5b60008083601f84011261046657610465610441565b5b8235905067ffffffffffffffff81111561048357610482610446565b5b60208301915083600182028301111561049f5761049e61044b565b5b9250929050565b6000806000604084860312156104bf576104be61031e565b5b600084013567ffffffffffffffff8111156104dd576104dc610323565b5b6104e986828701610450565b935093505060206104fc8682870161033f565b9150509250925092565b600080fd5b7f4e487b7100000000000000000000000000000000000000000000000000000000600052604160045260246000fd5b610543826103c7565b810181811067ffffffffffffffff821117156105625761056161050b565b5b80604052505050565b6000610575610314565b9050610581828261053a565b919050565b600067ffffffffffffffff8211156105a1576105a061050b565b5b6105aa826103c7565b9050602081019050919050565b82818337600083830152505050565b60006105d96105d484610586565b61056b565b9050828152602081018484840111156105f5576105f4610506565b5b6106008482856105b7565b509392505050565b600082601f83011261061d5761061c610441565b5b813561062d8482602086016105c6565b91505092915050565b60006020828403121561064c5761064b61031e565b5b600082013567ffffffffffffffff81111561066a57610669610323565b5b61067684828501610608565b91505092915050565b7f4e487b7100000000000000000000000000000000000000000000000000000000600052602260045260246000fd5b600060028204905060018216806106c657607f821691505b6020821081036106d9576106d861067f565b5b50919050565b60008190508160005260206000209050919050565b60006020601f8301049050919050565b600082821b905092915050565b6000600883026107417fffffffffffffffffffffffffffffffffffffffffffffffffffffffffffffffff82610704565b61074b8683610704565b95508019841693508086168417925050509392505050565b6000819050919050565b600061078861078361077e846102e0565b610763565b6102e0565b9050919050565b6000819050919050565b6107a28361076d565b6107b66107ae8261078f565b848454610711565b825550505050565b600090565b6107cb6107be565b6107d6818484610799565b505050565b5b818110156107fa576107ef6000826107c3565b6001810190506107dc565b5050565b601f82111561083f57610810816106df565b610819846106f4565b81016020851015610828578190505b61083c610834856106f4565b8301826107db565b50505b505050565b600082821c905092915050565b600061086260001984600802610844565b1980831691505092915050565b600061087b8383610851565b9150826002028217905092915050565b61089482610381565b67ffffffffffffffff8111156108ad576108ac61050b565b5b6108b782546106ae565b6108c28282856107fe565b600060209050601f8311600181146108f557600084156108e3578287015190505b6108ed858261086f565b865550610955565b601f198416610903866106df565b60005b8281101561092b57848901518255600182019150602085019450602081019050610906565b868310156109485784890151610944601f891682610851565b8355505b6001600288020188555050505b505050505050565b600081905092915050565b6000610974838561095d565b93506109818385846105b7565b82840190509392505050565b600061099a828486610968565b9150819050939250505056fea2646970667358221220afe41c4c67b9c13f3e628da168de3b049abf3be8a6e1a3d0cd3ddfb8a744b91e64736f6c634300081c0033",
  "linkReferences": {},
  "deployedLinkReferences": {}
}