{
  "_format": "hh-sol-artifact-1",
  "contractName": "TimesTwoStorageFactory",
  "sourceName": "contracts/timesTwoStorageFactory.sol",
  "abi": [
    {
      "inputs": [],
      "name": "createTimesTwoStorageContract",
      "outputs": [],
      "stateMutability": "nonpayable",
      "type": "function"
    },
    {
      "inputs": [
        {
          "internalType": "uint256",
          "name": "_index",
          "type": "uint256"
        }
      ],
      "name": "getContractAddress",
      "outputs": [
        {
          "internalType": "address",
          "name": "",
          "type": "address"
        }
      ],
      "stateMutability": "view",
      "type": "function"
    },
    {
      "inputs": [],
      "name": "getContractCount",
      "outputs": [
        {
          "internalType": "uint256",
          "name": "",
          "type": "uint256"
        }
      ],
      "stateMutability": "view",
      "type": "function"
    },
    {
      "inputs": [
        {
          "internalType": "uint256",
          "name": "",
          "type": "uint256"
        }
      ],
      "name": "listOfTimesTwoStorage",
      "outputs": [
        {
          "internalType": "contract TimesTwoStorage",
          "name": "",
          "type": "address"
        }
      ],
      "stateMutability": "view",
      "type": "function"
    },
    {
      "inputs": [
        {
          "internalType": "uint256",
          "name": "_index",
          "type": "uint256"
        },
        {
          "internalType": "string",
          "name": "_name",
          "type": "string"
        },
        {
          "internalType": "uint256",
          "name": "_number",
          "type": "uint256"
        }
      ],
      "name": "sfAddPerson",
      "outputs": [],
      "stateMutability": "nonpayable",
      "type": "function"
    },
    {
      "inputs": [
        {
          "internalType": "uint256",
          "name": "_index",
          "type": "uint256"
        }
      ],
      "name": "sfGet",
      "outputs": [
        {
          "internalType": "uint256",
          "name": "",
          "type": "uint256"
        }
      ],
      "stateMutability": "view",
      "type": "function"
    },
    {
      "inputs": [
        {
          "internalType": "uint256",
          "name": "_index",
          "type": "uint256"
        },
        {
          "internalType": "string",
          "name": "_name",
          "type": "string"
        }
      ],
      "name": "sfGetPersonNumber",
      "outputs": [
        {
          "internalType": "uint256",
          "name": "",
          "type": "uint256"
        }
      ],
      "stateMutability": "view",
      "type": "function"
    },
    {
      "inputs": [
        {
          "internalType": "uint256",
          "name": "_index",
          "type": "uint256"
        },
        {
          "internalType": "uint256",
          "name": "_number",
          "type": "uint256"
        }
      ],
      "name": "sfStore",
      "outputs": [],
      "stateMutability": "nonpayable",
      "type": "function"
    }
  ],
  "bytecode": "0x6080604052348015600f57600080fd5b506114718061001f6000396000f3fe608060405234801561001057600080fd5b50600436106100885760003560e01c80638be1fffc1161005b5780638be1fffc146101255780639399869d1461012f578063aefa7d981461014d578063c5f19c201461017d57610088565b80631563700f1461008d578063184d0dfb146100a95780635682db66146100d95780636a65513f14610109575b600080fd5b6100a760048036038101906100a291906105f8565b6101ad565b005b6100c360048036038101906100be919061069d565b61025a565b6040516100d0919061070c565b60405180910390f35b6100f360048036038101906100ee9190610727565b61031e565b60405161010091906107d3565b60405180910390f35b610123600480360381019061011e91906107ee565b61035d565b005b61012d610410565b005b6101376104a3565b604051610144919061070c565b60405180910390f35b61016760048036038101906101629190610727565b6104af565b6040516101749190610883565b60405180910390f35b61019760048036038101906101929190610727565b6104f6565b6040516101a4919061070c565b60405180910390f35b600082815481106101c1576101c061089e565b5b9060005260206000200160009054906101000a900473ffffffffffffffffffffffffffffffffffffffff1673ffffffffffffffffffffffffffffffffffffffff16636057361d826040518263ffffffff1660e01b8152600401610224919061070c565b600060405180830381600087803b15801561023e57600080fd5b505af1158015610252573d6000803e3d6000fd5b505050505050565b600080848154811061026f5761026e61089e565b5b9060005260206000200160009054906101000a900473ffffffffffffffffffffffffffffffffffffffff1673ffffffffffffffffffffffffffffffffffffffff16638bab8dd584846040518363ffffffff1660e01b81526004016102d492919061092b565b602060405180830381865afa1580156102f1573d6000803e3d6000fd5b505050506040513d601f19601f820116820180604052508101906103159190610964565b90509392505050565b6000818154811061032e57600080fd5b906000526020600020016000915054906101000a900473ffffffffffffffffffffffffffffffffffffffff1681565b600084815481106103715761037061089e565b5b9060005260206000200160009054906101000a900473ffffffffffffffffffffffffffffffffffffffff1673ffffffffffffffffffffffffffffffffffffffff16636f760f418484846040518463ffffffff1660e01b81526004016103d893929190610991565b600060405180830381600087803b1580156103f257600080fd5b505af1158015610406573d6000803e3d6000fd5b5050505050505050565b600060405161041e906105ab565b604051809103906000f08015801561043a573d6000803e3d6000fd5b5090506000819080600181540180825580915050600190039060005260206000200160009091909190916101000a81548173ffffffffffffffffffffffffffffffffffffffff021916908373ffffffffffffffffffffffffffffffffffffffff16021790555050565b60008080549050905090565b60008082815481106104c4576104c361089e565b5b9060005260206000200160009054906101000a900473ffffffffffffffffffffffffffffffffffffffff169050919050565b600080828154811061050b5761050a61089e565b5b9060005260206000200160009054906101000a900473ffffffffffffffffffffffffffffffffffffffff1673ffffffffffffffffffffffffffffffffffffffff16632e64cec16040518163ffffffff1660e01b8152600401602060405180830381865afa158015610580573d6000803e3d6000fd5b505050506040513d601f19601f820116820180604052508101906105a49190610964565b9050919050565b610a78806109c483390190565b600080fd5b600080fd5b6000819050919050565b6105d5816105c2565b81146105e057600080fd5b50565b6000813590506105f2816105cc565b92915050565b6000806040838503121561060f5761060e6105b8565b5b600061061d858286016105e3565b925050602061062e858286016105e3565b9150509250929050565b600080fd5b600080fd5b600080fd5b60008083601f84011261065d5761065c610638565b5b8235905067ffffffffffffffff81111561067a5761067961063d565b5b60208301915083600182028301111561069657610695610642565b5b9250929050565b6000806000604084860312156106b6576106b56105b8565b5b60006106c4868287016105e3565b935050602084013567ffffffffffffffff8111156106e5576106e46105bd565b5b6106f186828701610647565b92509250509250925092565b610706816105c2565b82525050565b600060208201905061072160008301846106fd565b92915050565b60006020828403121561073d5761073c6105b8565b5b600061074b848285016105e3565b91505092915050565b600073ffffffffffffffffffffffffffffffffffffffff82169050919050565b6000819050919050565b600061079961079461078f84610754565b610774565b610754565b9050919050565b60006107ab8261077e565b9050919050565b60006107bd826107a0565b9050919050565b6107cd816107b2565b82525050565b60006020820190506107e860008301846107c4565b92915050565b60008060008060608587031215610808576108076105b8565b5b6000610816878288016105e3565b945050602085013567ffffffffffffffff811115610837576108366105bd565b5b61084387828801610647565b93509350506040610856878288016105e3565b91505092959194509250565b600061086d82610754565b9050919050565b61087d81610862565b82525050565b60006020820190506108986000830184610874565b92915050565b7f4e487b7100000000000000000000000000000000000000000000000000000000600052603260045260246000fd5b600082825260208201905092915050565b82818337600083830152505050565b6000601f19601f8301169050919050565b600061090a83856108cd565b93506109178385846108de565b610920836108ed565b840190509392505050565b600060208201905081810360008301526109468184866108fe565b90509392505050565b60008151905061095e816105cc565b92915050565b60006020828403121561097a576109796105b8565b5b60006109888482850161094f565b91505092915050565b600060408201905081810360008301526109ac8185876108fe565b90506109bb60208301846106fd565b94935050505056fe6080604052348015600f57600080fd5b50610a598061001f6000396000f3fe608060405234801561001057600080fd5b50600436106100575760003560e01c80632e64cec11461005c5780632ebce6311461007a5780636057361d146100ab5780636f760f41146100c75780638bab8dd5146100e3575b600080fd5b610064610113565b6040516100719190610305565b60405180910390f35b610094600480360381019061008f9190610360565b61011c565b6040516100a292919061041d565b60405180910390f35b6100c560048036038101906100c09190610360565b6101d8565b005b6100e160048036038101906100dc91906104b2565b6101ee565b005b6100fd60048036038101906100f89190610642565b6102be565b60405161010a9190610305565b60405180910390f35b60008054905090565b6001818154811061012c57600080fd5b9060005260206000209060020201600091509050806000015490806001018054610155906106ba565b80601f0160208091040260200160405190810160405280929190818152602001828054610181906106ba565b80156101ce5780601f106101a3576101008083540402835291602001916101ce565b820191906000526020600020905b8154815290600101906020018083116101b157829003601f168201915b5050505050905082565b6002816101e5919061071a565b60008190555050565b6001604051806040016040528083815260200185858080601f016020809104026020016040519081016040528093929190818152602001838380828437600081840152601f19601f8201169050808301925050505050505081525090806001815401808255809150506001900390600052602060002090600202016000909190919091506000820151816000015560208201518160010190816102919190610908565b50505080600284846040516102a7929190610a0a565b908152602001604051809103902081905550505050565b6002818051602081018201805184825260208301602085012081835280955050505050506000915090505481565b6000819050919050565b6102ff816102ec565b82525050565b600060208201905061031a60008301846102f6565b92915050565b6000604051905090565b600080fd5b600080fd5b61033d816102ec565b811461034857600080fd5b50565b60008135905061035a81610334565b92915050565b6000602082840312156103765761037561032a565b5b60006103848482850161034b565b91505092915050565b600081519050919050565b600082825260208201905092915050565b60005b838110156103c75780820151818401526020810190506103ac565b60008484015250505050565b6000601f19601f8301169050919050565b60006103ef8261038d565b6103f98185610398565b93506104098185602086016103a9565b610412816103d3565b840191505092915050565b600060408201905061043260008301856102f6565b818103602083015261044481846103e4565b90509392505050565b600080fd5b600080fd5b600080fd5b60008083601f8401126104725761047161044d565b5b8235905067ffffffffffffffff81111561048f5761048e610452565b5b6020830191508360018202830111156104ab576104aa610457565b5b9250929050565b6000806000604084860312156104cb576104ca61032a565b5b600084013567ffffffffffffffff8111156104e9576104e861032f565b5b6104f58682870161045c565b935093505060206105088682870161034b565b9150509250925092565b600080fd5b7f4e487b7100000000000000000000000000000000000000000000000000000000600052604160045260246000fd5b61054f826103d3565b810181811067ffffffffffffffff8211171561056e5761056d610517565b5b80604052505050565b6000610581610320565b905061058d8282610546565b919050565b600067ffffffffffffffff8211156105ad576105ac610517565b5b6105b6826103d3565b9050602081019050919050565b82818337600083830152505050565b60006105e56105e084610592565b610577565b90508281526020810184848401111561060157610600610512565b5b61060c8482856105c3565b509392505050565b600082601f8301126106295761062861044d565b5b81356106398482602086016105d2565b91505092915050565b6000602082840312156106585761065761032a565b5b600082013567ffffffffffffffff8111156106765761067561032f565b5b61068284828501610614565b91505092915050565b7f4e487b7100000000000000000000000000000000000000000000000000000000600052602260045260246000fd5b600060028204905060018216806106d257607f821691505b6020821081036106e5576106e461068b565b5b50919050565b7f4e487b7100000000000000000000000000000000000000000000000000000000600052601160045260246000fd5b6000610725826102ec565b9150610730836102ec565b925082820261073e816102ec565b91508282048414831517610755576107546106eb565b5b5092915050565b60008190508160005260206000209050919050565b60006020601f8301049050919050565b600082821b905092915050565b6000600883026107be7fffffffffffffffffffffffffffffffffffffffffffffffffffffffffffffffff82610781565b6107c88683610781565b95508019841693508086168417925050509392505050565b6000819050919050565b60006108056108006107fb846102ec565b6107e0565b6102ec565b9050919050565b6000819050919050565b61081f836107ea565b61083361082b8261080c565b84845461078e565b825550505050565b600090565b61084861083b565b610853818484610816565b505050565b5b818110156108775761086c600082610840565b600181019050610859565b5050565b601f8211156108bc5761088d8161075c565b61089684610771565b810160208510156108a5578190505b6108b96108b185610771565b830182610858565b50505b505050565b600082821c905092915050565b60006108df600019846008026108c1565b1980831691505092915050565b60006108f883836108ce565b9150826002028217905092915050565b6109118261038d565b67ffffffffffffffff81111561092a57610929610517565b5b61093482546106ba565b61093f82828561087b565b600060209050601f8311600181146109725760008415610960578287015190505b61096a85826108ec565b8655506109d2565b601f1984166109808661075c565b60005b828110156109a857848901518255600182019150602085019450602081019050610983565b868310156109c557848901516109c1601f8916826108ce565b8355505b6001600288020188555050505b505050505050565b600081905092915050565b60006109f183856109da565b93506109fe8385846105c3565b82840190509392505050565b6000610a178284866109e5565b9150819050939250505056fea26469706673582212203d1a847fea709b08fe5918840a9930675ec26500fbb8d81d8b5f9ca01635543164736f6c634300081c0033a2646970667358221220f6627d62ae4c93d8c19796ec951071af4f1c12d13d380393543aebdf3f8f299764736f6c634300081c0033",
  "linkReferences": {},
  "deployedLinkReferences": {}
}